:03000000020B17D9
:0C0B1700787FE4F6D8FD75813E020B5E8D
:040C2200023B000B86
:0F0C8600120C70120BA3AF3CAE3B12097A80F434
:100BA300120CA08F25E525600B120CA08F25120CCB
:100BB300A0EF70FAE525604824FE602124FE602240
:100BC30024FC602324F8602424F0602524E06026BC
:100BD30024C06027247F7028753D018026753D025F
:100BE3008021753D03801C753D048017753D05808C
:100BF30012753D06800D753D078008753D0880031D
:100C0300E4F53DE53DB40309053CE53C7010053BC7
:0E0C130022E53DB40708E53C153C7002153B98
:010C210022B0
:080CA0007580FFAF80EFF4FF47
:010CA8002229
:0B0C95003F065B4F666D7D077F6F40E0
:04097A00AB07AA0617
:10097E007C277D10120A637E037FE8CFCDCFCECCCD
:10098E00CE120A6374952FF582740C3EF583E493B0
:10099E00752700F5287C037DE8AF03AE02120A63CB
:1009AE007E007F64CFCDCFCECCCE120A6374952F4E
:1009BE00F582740C3EF583E493752900F52A7C00CC
:1009CE007D64AF03AE02120A637E007F0ACFCDCFE5
:1009DE00CECCCE120A6374952FF582740C3EF5833D
:1009EE00E493752B00F52CAE02AF037C007D0A124A
:1009FE000A6374952DF582740C3CF583E493752D82
:100A0E0000F52EE4F525F526E52625E02427F80841
:100A1E00E6F590E5257025E52614600E1460131496
:100A2E00601424037016C2A28002D2A2C2A3C2A472
:100A3E00800AC2A28002D2A2D2A3C2A47F967E0056
:100A4E00120C520526E52670020525C39404E525F1
:040A5E00940040B40C
:010A62002271
:100C5200D3EF9400EE940040147DC8D3ED648094E9
:0D0C62008040031D80F5EF1F70E61E80E34B
:010C6F002262
:100C7000758921758DFD758BFDD28EC29FD29ED256
:060C80009CD2AFD2AC22B1
:100C2600041400000000041800000000040800007E
:100C360001050410005253AB041C004C57A9040CC8
:0B0C4600005654B0052001050190008D
:03002300020800D0
:10080000C0E0C0F0C083C082C0D075D000C000C0BE
:0D08100001C002C003C004C005C006C0073F
:10081D00C2AC9000003098FDAF17AE16AD15AC14FC
:10082D007808120AAFA804A905AA06AB07AF99EB81
:10083D004FF517EAF516E9F515E8F514C298A3E595
:10084D00826402458370CE9000003098FDAF1BAEE0
:10085D001AAD19AC187808120AAFA804A905AA0692
:10086D00AB07AF99EB4FF51BEAF51AE9F519E8F56A
:10087D0018C298A3E5826403458370CEAF0BAE0A10
:10088D00AD09AC08AB17AA16A915A814C3120A997D
:10089D007021AF13AE12AD11AC10AB1BAA1AA91972
:1008AD00A818C3120A99700B053CE53C7002053B74
:1008BD00020945AF0BAE0AAD09AC08AB17AA16A9D4
:1008CD0015A814C3120A997020AF1FAE1EAD1DAC32
:1008DD001CAB1BAA1AA919A818C3120A99700AE50C
:1008ED003C153C7002153B804FAF0BAE0AAD09AC09
:1008FD0008AB17AA16A915A814C3120A997039AF17
:10090D000FAE0EAD0DAC0CAB1BAA1AA919A818C3CE
:10091D00120A997023E53BFF8F22E53CF5239000E9
:10092D0000AF8274202FF8E6F5993099FDC299A396
:10093D00E5826405458370E9751700751600751518
:10094D0000751400751B00751A00751900751800D7
:02095D00D2AC1A
:10095F00D007D006D005D004D003D002D001D000EC
:0B096F00D0D0D082D083D0F0D0E03296
:100B2300020C86E493A3F8E493A34003F68001F256
:100B330008DFF48029E493A3F85407240CC8C333D3
:100B4300C4540F4420C8834004F456800146F6DFA2
:100B5300E4800B0102040810204080900C22E47E04
:100B6300019360BCA3FF543F30E509541FFEE49397
:100B7300A360010ECF54C025E060A840B8E493A35E
:100B8300FAE493A3F8E493A3C8C582C8CAC583CA89
:100B9300F0A3C8C582C8CAC583CADFE9DEE780BE41
:010C510000A2
:100A6300C2D5EC30E709B2D5E4C39DFDE49CFCEEAE
:100A730030E715B2D5E4C39FFFE49EFE120AC2C35A
:100A8300E49DFDE49CFC8003120AC230D507C3E455
:060A93009FFFE49EFE221D
:100A9900EB9FF5F0EA9E42F0E99D42F0EC6480C8D4
:060AA90064809845F02274
:100AAF00E8600FEFC333FFEE33FEED33FDEC33FCA5
:030ABF00D8F12249
:100AC200BC000BBE0029EF8DF084FFADF022E4CC18
:100AD200F875F008EF2FFFEE33FEEC33FCEE9DECE1
:100AE200984005FCEE9DFE0FD5F0E9E4CEFD22ED27
:100AF200F8F5F0EE8420D21CFEADF075F008EF2F71
:100B0200FFED33FD4007985006D5F0F222C398FD61
:050B12000FD5F0EA22FE
:00000001FF
