:030000000202EB0E
:0C02EB00787FE4F6D8FD758135020332FF
:0403F6000232000BC4
:0F042F00120419120377AF33AE3212014E80F46C
:100377001204498F08E508600B1204498F0812041C
:1003870049EF70FAE508604824FE602124FE6022E8
:1003970024FC602324F8602424F0602524E06026F0
:1003A70024C06027247F70287534018026753402A5
:1003B7008021753403801C753404801775340580DB
:1003C70012753406800D753407800875340880036C
:1003D700E4F534E534B403090533E5337010053229
:0E03E70022E534B40708E533153370021532F1
:0103F50022E5
:080449007580FFAF80EFF4FFA6
:010451002288
:0B043E003F065B4F666D7D077F6F403F
:04014E00AB07AA064B
:100152007C277D101202377E037FE8CFCDCFCECC35
:10016200CE120237743E2FF58274043EF583E49377
:10017200750A00F50B7C037DE8AF03AE021202376D
:100182007E007F64CFCDCFCECCCE120237743E2F0D
:10019200F58274043EF583E493750C00F50D7C0042
:1001A2007D64AF03AE021202377E007F0ACFCDCF4D
:1001B200CECCCE120237743E2FF58274043EF58304
:1001C200E493750E00F50FAE02AF037C007D0A12B8
:1001D2000237743E2DF58274043CF583E493751066
:1001E20000F511E4F508F509E50925E0240AF80807
:1001F200E6F590E5087025E50914600E1460131405
:10020200601424037016C2A28002D2A2C2A3C2A4A6
:10021200800AC2A28002D2A2D2A3C2A47F967E008A
:100222001200030509E50970020508C39404E508F4
:04023200940040B440
:0102360022A5
:10000300D3EF9400EE940040147DC8D3ED64809444
:0D0013008040031D80F5EF1F70E61E80E3A6
:0100200022BD
:10041900758921758DFD758BFDD28EC29FD29ED2B5
:060429009CD2AFD2AC2210
:1003FA00042600000000042A00000000041E000079
:0E040A0001050422005253AB042E004C57A9EA
:03002300020026B2
:10002600C0E0C0F0C083C082C0D075D000C000C0A0
:0D00360001C002C003C004C005C006C00721
:10004300C2AC9000003098FDAF29AE28AD27AC2696
:100053007808120283A804A905AA06AB07AF99EB97
:100063004FF529EAF528E9F527E8F526C298A3E52F
:10007300826402458370CE9000003098FDAF2DAEB0
:100083002CAD2BAC2A7808120283A804A905AA0672
:10009300AB07AF99EB4FF52DEAF52CE9F52BE8F516
:1000A3002AC298A3E5826403458370CEAF21AE20B4
:1000B300AD1FAC1EAB29AA28A927A826C312026D1F
:1000C3007020AF25AE24AD23AC22AB2DAA2CA92BD7
:1000D300A82AC312026D700A0533E5337002053294
:1000E3008034AF21AE20AD1FAC1EAB29AA28A927AF
:1000F300A826C312026D701EAF31AE30AD2FAC2EE9
:10010300AB2DAA2CA92BA82AC312026D7008E533C4
:10011300153370021532752900752800752700758F
:100123002600752D00752C00752B00752A00D2ACA6
:10013300D007D006D005D004D003D002D001D00020
:0B014300D0D0D082D083D0F0D0E032CA
:1002F70002042FE493A3F8E493A34003F68001F2EA
:1003070008DFF48029E493A3F85407240CC8C33307
:10031700C4540F4420C8834004F456800146F6DFD6
:10032700E4800B01020408102040809003F6E47E6D
:10033700019360BCA3FF543F30E509541FFEE493CB
:10034700A360010ECF54C025E060A840B8E493A392
:10035700FAE493A3F8E493A3C8C582C8CAC583CABD
:10036700F0A3C8C582C8CAC583CADFE9DEE780BE75
:0104180000E3
:10023700C2D5EC30E709B2D5E4C39DFDE49CFCEEE2
:1002470030E715B2D5E4C39FFFE49EFE120296C3C2
:10025700E49DFDE49CFC800312029630D507C3E4BD
:060267009FFFE49EFE2251
:10026D00EB9FF5F0EA9E42F0E99D42F0EC6480C808
:06027D0064809845F022A8
:10028300E8600FEFC333FFEE33FEED33FDEC33FCD9
:03029300D8F1227D
:10029600BC000BBE0029EF8DF084FFADF022E4CC4C
:1002A600F875F008EF2FFFEE33FEEC33FCEE9DEC15
:1002B600984005FCEE9DFE0FD5F0E9E4CEFD22ED5B
:1002C600F8F5F0EE8420D21CFEADF075F008EF2FA5
:1002D600FFED33FD4007985006D5F0F222C398FD96
:0502E6000FD5F0EA2233
:00000001FF
